{
  "contractName": "TodoList",
  "abi": [
    {
      "anonymous": false,
      "inputs": [
        {
          "indexed": false,
          "internalType": "uint256",
          "name": "todo_id",
          "type": "uint256"
        },
        {
          "indexed": false,
          "internalType": "string",
          "name": "name",
          "type": "string"
        },
        {
          "indexed": false,
          "internalType": "bool",
          "name": "is_done",
          "type": "bool"
        }
      ],
      "name": "NewTask",
      "type": "event"
    },
    {
      "inputs": [
        {
          "internalType": "uint256",
          "name": "",
          "type": "uint256"
        }
      ],
      "name": "ownerOfTask",
      "outputs": [
        {
          "internalType": "address",
          "name": "owner",
          "type": "address"
        },
        {
          "internalType": "uint256",
          "name": "indexOfTodoTask",
          "type": "uint256"
        }
      ],
      "stateMutability": "view",
      "type": "function"
    },
    {
      "inputs": [
        {
          "internalType": "address",
          "name": "",
          "type": "address"
        }
      ],
      "name": "tasksCount",
      "outputs": [
        {
          "internalType": "uint256",
          "name": "",
          "type": "uint256"
        }
      ],
      "stateMutability": "view",
      "type": "function"
    },
    {
      "inputs": [
        {
          "internalType": "string",
          "name": "_name",
          "type": "string"
        }
      ],
      "name": "addTask",
      "outputs": [],
      "stateMutability": "nonpayable",
      "type": "function"
    },
    {
      "inputs": [],
      "name": "getTasks",
      "outputs": [
        {
          "components": [
            {
              "internalType": "uint256",
              "name": "todo_id",
              "type": "uint256"
            },
            {
              "internalType": "string",
              "name": "name",
              "type": "string"
            },
            {
              "internalType": "bool",
              "name": "is_done",
              "type": "bool"
            }
          ],
          "internalType": "struct TodoList.TodoTask[]",
          "name": "",
          "type": "tuple[]"
        }
      ],
      "stateMutability": "view",
      "type": "function"
    },
    {
      "inputs": [
        {
          "internalType": "uint256",
          "name": "taskId",
          "type": "uint256"
        }
      ],
      "name": "completeTask",
      "outputs": [],
      "stateMutability": "nonpayable",
      "type": "function"
    }
  ],
  "bytecode": "0x60806040526000805534801561001457600080fd5b5061109e806100246000396000f3fe608060405234801561001057600080fd5b50600436106100575760003560e01c806304a87e381461005c578063672385621461007a578063679507dc146100965780637b219c39146100c7578063e1e29558146100f7575b600080fd5b610064610113565b6040516100719190610c60565b60405180910390f35b610094600480360381019061008f91906109cc565b61045d565b005b6100b060048036038101906100ab9190610a0d565b610637565b6040516100be929190610c37565b60405180910390f35b6100e160048036038101906100dc91906109a3565b61067b565b6040516100ee9190610c82565b60405180910390f35b610111600480360381019061010c9190610a0d565b610693565b005b60606000600360003373ffffffffffffffffffffffffffffffffffffffff1673ffffffffffffffffffffffffffffffffffffffff1681526020019081526020016000205467ffffffffffffffff811115610196577f4e487b7100000000000000000000000000000000000000000000000000000000600052604160045260246000fd5b6040519080825280602002602001820160405280156101cf57816020015b6101bc61084b565b8152602001906001900390816101b45790505b5090506000805b600180549050811015610454573373ffffffffffffffffffffffffffffffffffffffff166002600060018481548110610238577f4e487b7100000000000000000000000000000000000000000000000000000000600052603260045260246000fd5b906000526020600020906003020160000154815260200190815260200160002060000160009054906101000a900473ffffffffffffffffffffffffffffffffffffffff1673ffffffffffffffffffffffffffffffffffffffff1614156103f557600181815481106102d2577f4e487b7100000000000000000000000000000000000000000000000000000000600052603260045260246000fd5b90600052602060002090600302016040518060600160405290816000820154815260200160018201805461030590610e55565b80601f016020809104026020016040519081016040528092919081815260200182805461033190610e55565b801561037e5780601f106103535761010080835404028352916020019161037e565b820191906000526020600020905b81548152906001019060200180831161036157829003601f168201915b505050505081526020016002820160009054906101000a900460ff1615151515815250508383815181106103db577f4e487b7100000000000000000000000000000000000000000000000000000000600052603260045260246000fd5b602002602001018190525081806103f190610eb8565b9250505b81600360003373ffffffffffffffffffffffffffffffffffffffff1673ffffffffffffffffffffffffffffffffffffffff16815260200190815260200160002054141561044157610454565b808061044c90610eb8565b9150506101d6565b50819250505090565b6000604051806060016040528061047460646107f0565b815260200183815260200160001515815250905060018190806001815401808255809150506001900390600052602060002090600302016000909190919091506000820151816000015560208201518160010190805190602001906104da92919061086e565b5060408201518160020160006101000a81548160ff021916908315150217905550505060405180604001604052803373ffffffffffffffffffffffffffffffffffffffff168152602001600180805490506105359190610d97565b815250600260008360000151815260200190815260200160002060008201518160000160006101000a81548173ffffffffffffffffffffffffffffffffffffffff021916908373ffffffffffffffffffffffffffffffffffffffff16021790555060208201518160010155905050600180549050600360003373ffffffffffffffffffffffffffffffffffffffff1673ffffffffffffffffffffffffffffffffffffffff168152602001908152602001600020819055507f8de7fcf423c3be88a1d33619458254be5a02866653e3209631248661ba7db88181600001518260200151836040015160405161062b93929190610c9d565b60405180910390a15050565b60026020528060005260406000206000915090508060000160009054906101000a900473ffffffffffffffffffffffffffffffffffffffff16908060010154905082565b60036020528060005260406000206000915090505481565b806002600082815260200190815260200160002060000160009054906101000a900473ffffffffffffffffffffffffffffffffffffffff1673ffffffffffffffffffffffffffffffffffffffff163373ffffffffffffffffffffffffffffffffffffffff161461070257600080fd5b6000600260008481526020019081526020016000206040518060400160405290816000820160009054906101000a900473ffffffffffffffffffffffffffffffffffffffff1673ffffffffffffffffffffffffffffffffffffffff1673ffffffffffffffffffffffffffffffffffffffff16815260200160018201548152505090506001808260200151815481106107c3577f4e487b7100000000000000000000000000000000000000000000000000000000600052603260045260246000fd5b906000526020600020906003020160020160006101000a81548160ff021916908315150217905550505050565b600080600081548092919061080490610eb8565b919050555081423360005460405160200161082193929190610bfa565b6040516020818303038152906040528051906020012060001c6108449190610f2f565b9050919050565b604051806060016040528060008152602001606081526020016000151581525090565b82805461087a90610e55565b90600052602060002090601f01602090048101928261089c57600085556108e3565b82601f106108b557805160ff19168380011785556108e3565b828001600101855582156108e3579182015b828111156108e25782518255916020019190600101906108c7565b5b5090506108f091906108f4565b5090565b5b8082111561090d5760008160009055506001016108f5565b5090565b600061092461091f84610d00565b610cdb565b90508281526020810184848401111561093c57600080fd5b610947848285610e13565b509392505050565b60008135905061095e8161103a565b92915050565b600082601f83011261097557600080fd5b8135610985848260208601610911565b91505092915050565b60008135905061099d81611051565b92915050565b6000602082840312156109b557600080fd5b60006109c38482850161094f565b91505092915050565b6000602082840312156109de57600080fd5b600082013567ffffffffffffffff8111156109f857600080fd5b610a0484828501610964565b91505092915050565b600060208284031215610a1f57600080fd5b6000610a2d8482850161098e565b91505092915050565b6000610a428383610b75565b905092915050565b610a5381610dcb565b82525050565b610a6a610a6582610dcb565b610f01565b82525050565b6000610a7b82610d41565b610a858185610d64565b935083602082028501610a9785610d31565b8060005b85811015610ad35784840389528151610ab48582610a36565b9450610abf83610d57565b925060208a01995050600181019050610a9b565b50829750879550505050505092915050565b610aee81610ddd565b82525050565b610afd81610ddd565b82525050565b6000610b0e82610d4c565b610b188185610d75565b9350610b28818560208601610e22565b610b318161101c565b840191505092915050565b6000610b4782610d4c565b610b518185610d86565b9350610b61818560208601610e22565b610b6a8161101c565b840191505092915050565b6000606083016000830151610b8d6000860182610bc5565b5060208301518482036020860152610ba58282610b03565b9150506040830151610bba6040860182610ae5565b508091505092915050565b610bce81610e09565b82525050565b610bdd81610e09565b82525050565b610bf4610bef82610e09565b610f25565b82525050565b6000610c068286610be3565b602082019150610c168285610a59565b601482019150610c268284610be3565b602082019150819050949350505050565b6000604082019050610c4c6000830185610a4a565b610c596020830184610bd4565b9392505050565b60006020820190508181036000830152610c7a8184610a70565b905092915050565b6000602082019050610c976000830184610bd4565b92915050565b6000606082019050610cb26000830186610bd4565b8181036020830152610cc48185610b3c565b9050610cd36040830184610af4565b949350505050565b6000610ce5610cf6565b9050610cf18282610e87565b919050565b6000604051905090565b600067ffffffffffffffff821115610d1b57610d1a610fed565b5b610d248261101c565b9050602081019050919050565b6000819050602082019050919050565b600081519050919050565b600081519050919050565b6000602082019050919050565b600082825260208201905092915050565b600082825260208201905092915050565b600082825260208201905092915050565b6000610da282610e09565b9150610dad83610e09565b925082821015610dc057610dbf610f60565b5b828203905092915050565b6000610dd682610de9565b9050919050565b60008115159050919050565b600073ffffffffffffffffffffffffffffffffffffffff82169050919050565b6000819050919050565b82818337600083830152505050565b60005b83811015610e40578082015181840152602081019050610e25565b83811115610e4f576000848401525b50505050565b60006002820490506001821680610e6d57607f821691505b60208210811415610e8157610e80610fbe565b5b50919050565b610e908261101c565b810181811067ffffffffffffffff82111715610eaf57610eae610fed565b5b80604052505050565b6000610ec382610e09565b91507fffffffffffffffffffffffffffffffffffffffffffffffffffffffffffffffff821415610ef657610ef5610f60565b5b600182019050919050565b6000610f0c82610f13565b9050919050565b6000610f1e8261102d565b9050919050565b6000819050919050565b6000610f3a82610e09565b9150610f4583610e09565b925082610f5557610f54610f8f565b5b828206905092915050565b7f4e487b7100000000000000000000000000000000000000000000000000000000600052601160045260246000fd5b7f4e487b7100000000000000000000000000000000000000000000000000000000600052601260045260246000fd5b7f4e487b7100000000000000000000000000000000000000000000000000000000600052602260045260246000fd5b7f4e487b7100000000000000000000000000000000000000000000000000000000600052604160045260246000fd5b6000601f19601f8301169050919050565b60008160601b9050919050565b61104381610dcb565b811461104e57600080fd5b50565b61105a81610e09565b811461106557600080fd5b5056fea26469706673582212204618159dee362494dfd4ca85c6120936da293f49d4ad0a9dd00c4f165cbe557c64736f6c63430008020033",
  "immutableReferences": {},
  "source": "pragma solidity ^0.8.2;\r\n\r\ncontract TodoList {\r\n    event NewTask(uint256 todo_id, string name, bool is_done);\r\n\r\n    uint256 randNonce = 0;\r\n\r\n    struct TodoTask {\r\n        uint256 todo_id;\r\n        string name;\r\n        bool is_done;\r\n    }\r\n\r\n    struct TaskInfo {\r\n        address owner;\r\n        uint256 indexOfTodoTask;\r\n    }\r\n\r\n    TodoTask[] tasks;\r\n\r\n    mapping(uint256 => TaskInfo) public ownerOfTask;\r\n    mapping(address => uint256) public tasksCount;\r\n\r\n    modifier onlyOwnerOf(uint256 _todoId) {\r\n        require(msg.sender == ownerOfTask[_todoId].owner);\r\n        _;\r\n    }\r\n\r\n    function addTask(string memory _name) external {\r\n        TodoTask memory newTask = TodoTask(randMod(100), _name, false);\r\n        tasks.push(newTask);\r\n        ownerOfTask[newTask.todo_id] = TaskInfo(msg.sender, tasks.length - 1);\r\n        tasksCount[msg.sender] = tasks.length;\r\n        emit NewTask(newTask.todo_id, newTask.name, newTask.is_done);\r\n    }\r\n\r\n    function getTasks() external view returns (TodoTask[] memory) {\r\n        TodoTask[] memory result = new TodoTask[](tasksCount[msg.sender]);\r\n        uint256 counter = 0;\r\n        for (uint256 i = 0; i < tasks.length; i++) {\r\n            if (ownerOfTask[tasks[i].todo_id].owner == msg.sender) {\r\n                result[counter] = tasks[i];\r\n                counter++;\r\n            }\r\n            if (tasksCount[msg.sender] == counter) {\r\n                break;\r\n            }\r\n        }\r\n        return result;\r\n    }\r\n\r\n    function completeTask(uint256 taskId) external onlyOwnerOf(taskId) {\r\n        TaskInfo memory taskInfo = ownerOfTask[taskId];\r\n        tasks[taskInfo.indexOfTodoTask].is_done = true;\r\n    }\r\n\r\n    function randMod(uint256 _modulus) internal returns (uint256) {\r\n        // increase nonce\r\n        randNonce++;\r\n        return\r\n            uint256(\r\n                keccak256(\r\n                    abi.encodePacked(block.timestamp, msg.sender, randNonce)\r\n                )\r\n            ) % _modulus;\r\n    }\r\n}\r\n",
  "sourcePath": "D:/PersonalProjects/todo-list-dapp/ethereum/contracts/TodoTask.sol",
  "compiler": {
    "name": "solc",
    "version": "0.8.2+commit.661d1103.Emscripten.clang"
  },
  "schemaVersion": "3.3.4",
  "updatedAt": "2021-03-15T17:42:02.774Z",
  "devdoc": {
    "kind": "dev",
    "methods": {},
    "version": 1
  },
  "userdoc": {
    "kind": "user",
    "methods": {},
    "version": 1
  }
}