{
  "contractName": "TodoList",
  "abi": [
    {
      "anonymous": false,
      "inputs": [
        {
          "indexed": false,
          "internalType": "uint256",
          "name": "todo_id",
          "type": "uint256"
        },
        {
          "indexed": false,
          "internalType": "string",
          "name": "name",
          "type": "string"
        },
        {
          "indexed": false,
          "internalType": "bool",
          "name": "is_done",
          "type": "bool"
        }
      ],
      "name": "NewTask",
      "type": "event"
    },
    {
      "inputs": [
        {
          "internalType": "uint256",
          "name": "",
          "type": "uint256"
        }
      ],
      "name": "ownerOfTask",
      "outputs": [
        {
          "internalType": "address",
          "name": "owner",
          "type": "address"
        },
        {
          "internalType": "uint256",
          "name": "indexOfTodoTask",
          "type": "uint256"
        }
      ],
      "stateMutability": "view",
      "type": "function",
      "constant": true
    },
    {
      "inputs": [
        {
          "internalType": "address",
          "name": "",
          "type": "address"
        }
      ],
      "name": "tasksCount",
      "outputs": [
        {
          "internalType": "uint256",
          "name": "",
          "type": "uint256"
        }
      ],
      "stateMutability": "view",
      "type": "function",
      "constant": true
    },
    {
      "inputs": [
        {
          "internalType": "string",
          "name": "_name",
          "type": "string"
        }
      ],
      "name": "addTask",
      "outputs": [],
      "stateMutability": "nonpayable",
      "type": "function"
    },
    {
      "inputs": [
        {
          "internalType": "uint256",
          "name": "taskId",
          "type": "uint256"
        }
      ],
      "name": "removeTask",
      "outputs": [],
      "stateMutability": "nonpayable",
      "type": "function"
    },
    {
      "inputs": [],
      "name": "getTasks",
      "outputs": [
        {
          "components": [
            {
              "internalType": "uint256",
              "name": "todo_id",
              "type": "uint256"
            },
            {
              "internalType": "string",
              "name": "name",
              "type": "string"
            },
            {
              "internalType": "bool",
              "name": "is_done",
              "type": "bool"
            }
          ],
          "internalType": "struct TodoList.TodoTask[]",
          "name": "",
          "type": "tuple[]"
        }
      ],
      "stateMutability": "view",
      "type": "function",
      "constant": true
    },
    {
      "inputs": [
        {
          "internalType": "uint256",
          "name": "taskId",
          "type": "uint256"
        }
      ],
      "name": "completeTask",
      "outputs": [],
      "stateMutability": "nonpayable",
      "type": "function"
    }
  ],
  "bytecode": "0x60806040526000805534801561001457600080fd5b5061133a806100246000396000f3fe608060405234801561001057600080fd5b50600436106100625760003560e01c806304a87e38146100675780636723856214610085578063679507dc146100a15780637b219c39146100d2578063c308411714610102578063e1e295581461011e575b600080fd5b61006f61013a565b60405161007c9190610ed2565b60405180910390f35b61009f600480360381019061009a9190610c3e565b610484565b005b6100bb60048036038101906100b69190610c7f565b61065e565b6040516100c9929190610ea9565b60405180910390f35b6100ec60048036038101906100e79190610c15565b6106a2565b6040516100f99190610ef4565b60405180910390f35b61011c60048036038101906101179190610c7f565b6106ba565b005b61013860048036038101906101339190610c7f565b6108c5565b005b60606000600360003373ffffffffffffffffffffffffffffffffffffffff1673ffffffffffffffffffffffffffffffffffffffff1681526020019081526020016000205467ffffffffffffffff8111156101bd577f4e487b7100000000000000000000000000000000000000000000000000000000600052604160045260246000fd5b6040519080825280602002602001820160405280156101f657816020015b6101e3610a7d565b8152602001906001900390816101db5790505b5090506000805b60018054905081101561047b573373ffffffffffffffffffffffffffffffffffffffff16600260006001848154811061025f577f4e487b7100000000000000000000000000000000000000000000000000000000600052603260045260246000fd5b906000526020600020906003020160000154815260200190815260200160002060000160009054906101000a900473ffffffffffffffffffffffffffffffffffffffff1673ffffffffffffffffffffffffffffffffffffffff16141561041c57600181815481106102f9577f4e487b7100000000000000000000000000000000000000000000000000000000600052603260045260246000fd5b90600052602060002090600302016040518060600160405290816000820154815260200160018201805461032c906110f1565b80601f0160208091040260200160405190810160405280929190818152602001828054610358906110f1565b80156103a55780601f1061037a576101008083540402835291602001916103a5565b820191906000526020600020905b81548152906001019060200180831161038857829003601f168201915b505050505081526020016002820160009054906101000a900460ff161515151581525050838381518110610402577f4e487b7100000000000000000000000000000000000000000000000000000000600052603260045260246000fd5b6020026020010181905250818061041890611154565b9250505b81600360003373ffffffffffffffffffffffffffffffffffffffff1673ffffffffffffffffffffffffffffffffffffffff1681526020019081526020016000205414156104685761047b565b808061047390611154565b9150506101fd565b50819250505090565b6000604051806060016040528061049b6064610a22565b81526020018381526020016000151581525090506001819080600181540180825580915050600190039060005260206000209060030201600090919091909150600082015181600001556020820151816001019080519060200190610501929190610aa0565b5060408201518160020160006101000a81548160ff021916908315150217905550505060405180604001604052803373ffffffffffffffffffffffffffffffffffffffff1681526020016001808054905061055c9190611009565b815250600260008360000151815260200190815260200160002060008201518160000160006101000a81548173ffffffffffffffffffffffffffffffffffffffff021916908373ffffffffffffffffffffffffffffffffffffffff16021790555060208201518160010155905050600180549050600360003373ffffffffffffffffffffffffffffffffffffffff1673ffffffffffffffffffffffffffffffffffffffff168152602001908152602001600020819055507f8de7fcf423c3be88a1d33619458254be5a02866653e3209631248661ba7db88181600001518260200151836040015160405161065293929190610f0f565b60405180910390a15050565b60026020528060005260406000206000915090508060000160009054906101000a900473ffffffffffffffffffffffffffffffffffffffff16908060010154905082565b60036020528060005260406000206000915090505481565b806002600082815260200190815260200160002060000160009054906101000a900473ffffffffffffffffffffffffffffffffffffffff1673ffffffffffffffffffffffffffffffffffffffff163373ffffffffffffffffffffffffffffffffffffffff161461072957600080fd5b6000600260008481526020019081526020016000206040518060400160405290816000820160009054906101000a900473ffffffffffffffffffffffffffffffffffffffff1673ffffffffffffffffffffffffffffffffffffffff1673ffffffffffffffffffffffffffffffffffffffff168152602001600182015481525050905060018160200151815481106107e9577f4e487b7100000000000000000000000000000000000000000000000000000000600052603260045260246000fd5b90600052602060002090600302016000808201600090556001820160006108109190610b26565b6002820160006101000a81549060ff0219169055505060026000848152602001908152602001600020600080820160006101000a81549073ffffffffffffffffffffffffffffffffffffffff021916905560018201600090555050600360003373ffffffffffffffffffffffffffffffffffffffff1673ffffffffffffffffffffffffffffffffffffffff16815260200190815260200160002060008154809291906108bb906110c7565b9190505550505050565b806002600082815260200190815260200160002060000160009054906101000a900473ffffffffffffffffffffffffffffffffffffffff1673ffffffffffffffffffffffffffffffffffffffff163373ffffffffffffffffffffffffffffffffffffffff161461093457600080fd5b6000600260008481526020019081526020016000206040518060400160405290816000820160009054906101000a900473ffffffffffffffffffffffffffffffffffffffff1673ffffffffffffffffffffffffffffffffffffffff1673ffffffffffffffffffffffffffffffffffffffff16815260200160018201548152505090506001808260200151815481106109f5577f4e487b7100000000000000000000000000000000000000000000000000000000600052603260045260246000fd5b906000526020600020906003020160020160006101000a81548160ff021916908315150217905550505050565b6000806000815480929190610a3690611154565b9190505550814233600054604051602001610a5393929190610e6c565b6040516020818303038152906040528051906020012060001c610a7691906111cb565b9050919050565b604051806060016040528060008152602001606081526020016000151581525090565b828054610aac906110f1565b90600052602060002090601f016020900481019282610ace5760008555610b15565b82601f10610ae757805160ff1916838001178555610b15565b82800160010185558215610b15579182015b82811115610b14578251825591602001919060010190610af9565b5b509050610b229190610b66565b5090565b508054610b32906110f1565b6000825580601f10610b445750610b63565b601f016020900490600052602060002090810190610b629190610b66565b5b50565b5b80821115610b7f576000816000905550600101610b67565b5090565b6000610b96610b9184610f72565b610f4d565b905082815260208101848484011115610bae57600080fd5b610bb9848285611085565b509392505050565b600081359050610bd0816112d6565b92915050565b600082601f830112610be757600080fd5b8135610bf7848260208601610b83565b91505092915050565b600081359050610c0f816112ed565b92915050565b600060208284031215610c2757600080fd5b6000610c3584828501610bc1565b91505092915050565b600060208284031215610c5057600080fd5b600082013567ffffffffffffffff811115610c6a57600080fd5b610c7684828501610bd6565b91505092915050565b600060208284031215610c9157600080fd5b6000610c9f84828501610c00565b91505092915050565b6000610cb48383610de7565b905092915050565b610cc58161103d565b82525050565b610cdc610cd78261103d565b61119d565b82525050565b6000610ced82610fb3565b610cf78185610fd6565b935083602082028501610d0985610fa3565b8060005b85811015610d455784840389528151610d268582610ca8565b9450610d3183610fc9565b925060208a01995050600181019050610d0d565b50829750879550505050505092915050565b610d608161104f565b82525050565b610d6f8161104f565b82525050565b6000610d8082610fbe565b610d8a8185610fe7565b9350610d9a818560208601611094565b610da3816112b8565b840191505092915050565b6000610db982610fbe565b610dc38185610ff8565b9350610dd3818560208601611094565b610ddc816112b8565b840191505092915050565b6000606083016000830151610dff6000860182610e37565b5060208301518482036020860152610e178282610d75565b9150506040830151610e2c6040860182610d57565b508091505092915050565b610e408161107b565b82525050565b610e4f8161107b565b82525050565b610e66610e618261107b565b6111c1565b82525050565b6000610e788286610e55565b602082019150610e888285610ccb565b601482019150610e988284610e55565b602082019150819050949350505050565b6000604082019050610ebe6000830185610cbc565b610ecb6020830184610e46565b9392505050565b60006020820190508181036000830152610eec8184610ce2565b905092915050565b6000602082019050610f096000830184610e46565b92915050565b6000606082019050610f246000830186610e46565b8181036020830152610f368185610dae565b9050610f456040830184610d66565b949350505050565b6000610f57610f68565b9050610f638282611123565b919050565b6000604051905090565b600067ffffffffffffffff821115610f8d57610f8c611289565b5b610f96826112b8565b9050602081019050919050565b6000819050602082019050919050565b600081519050919050565b600081519050919050565b6000602082019050919050565b600082825260208201905092915050565b600082825260208201905092915050565b600082825260208201905092915050565b60006110148261107b565b915061101f8361107b565b925082821015611032576110316111fc565b5b828203905092915050565b60006110488261105b565b9050919050565b60008115159050919050565b600073ffffffffffffffffffffffffffffffffffffffff82169050919050565b6000819050919050565b82818337600083830152505050565b60005b838110156110b2578082015181840152602081019050611097565b838111156110c1576000848401525b50505050565b60006110d28261107b565b915060008214156110e6576110e56111fc565b5b600182039050919050565b6000600282049050600182168061110957607f821691505b6020821081141561111d5761111c61125a565b5b50919050565b61112c826112b8565b810181811067ffffffffffffffff8211171561114b5761114a611289565b5b80604052505050565b600061115f8261107b565b91507fffffffffffffffffffffffffffffffffffffffffffffffffffffffffffffffff821415611192576111916111fc565b5b600182019050919050565b60006111a8826111af565b9050919050565b60006111ba826112c9565b9050919050565b6000819050919050565b60006111d68261107b565b91506111e18361107b565b9250826111f1576111f061122b565b5b828206905092915050565b7f4e487b7100000000000000000000000000000000000000000000000000000000600052601160045260246000fd5b7f4e487b7100000000000000000000000000000000000000000000000000000000600052601260045260246000fd5b7f4e487b7100000000000000000000000000000000000000000000000000000000600052602260045260246000fd5b7f4e487b7100000000000000000000000000000000000000000000000000000000600052604160045260246000fd5b6000601f19601f8301169050919050565b60008160601b9050919050565b6112df8161103d565b81146112ea57600080fd5b50565b6112f68161107b565b811461130157600080fd5b5056fea264697066735822122082520f2ffc876c05adbad44d39ca5a11dbc90a2c9a64e2207f7f7bf21883410764736f6c63430008020033",
  "immutableReferences": {},
  "source": "pragma solidity ^0.8.2;\r\n\r\ncontract TodoList {\r\n    event NewTask(uint256 todo_id, string name, bool is_done);\r\n\r\n    uint256 randNonce = 0;\r\n\r\n    struct TodoTask {\r\n        uint256 todo_id;\r\n        string name;\r\n        bool is_done;\r\n    }\r\n\r\n    struct TaskInfo {\r\n        address owner;\r\n        uint256 indexOfTodoTask;\r\n    }\r\n\r\n    TodoTask[] tasks;\r\n\r\n    mapping(uint256 => TaskInfo) public ownerOfTask;\r\n    mapping(address => uint256) public tasksCount;\r\n\r\n    modifier onlyOwnerOf(uint256 _todoId) {\r\n        require(msg.sender == ownerOfTask[_todoId].owner);\r\n        _;\r\n    }\r\n\r\n    function addTask(string memory _name) external {\r\n        TodoTask memory newTask = TodoTask(randMod(100), _name, false);\r\n        tasks.push(newTask);\r\n        ownerOfTask[newTask.todo_id] = TaskInfo(msg.sender, tasks.length - 1);\r\n        tasksCount[msg.sender] = tasks.length;\r\n        emit NewTask(newTask.todo_id, newTask.name, newTask.is_done);\r\n    }\r\n\r\n    function removeTask(uint256 taskId) external onlyOwnerOf(taskId) {\r\n        TaskInfo memory taskInfo = ownerOfTask[taskId];\r\n        delete tasks[taskInfo.indexOfTodoTask];\r\n        delete ownerOfTask[taskId];\r\n        tasksCount[msg.sender]--;\r\n    }\r\n\r\n    function getTasks() external view returns (TodoTask[] memory) {\r\n        TodoTask[] memory result = new TodoTask[](tasksCount[msg.sender]);\r\n        uint256 counter = 0;\r\n        for (uint256 i = 0; i < tasks.length; i++) {\r\n            if (ownerOfTask[tasks[i].todo_id].owner == msg.sender) {\r\n                result[counter] = tasks[i];\r\n                counter++;\r\n            }\r\n            if (tasksCount[msg.sender] == counter) {\r\n                break;\r\n            }\r\n        }\r\n        return result;\r\n    }\r\n\r\n    function completeTask(uint256 taskId) external onlyOwnerOf(taskId) {\r\n        TaskInfo memory taskInfo = ownerOfTask[taskId];\r\n        tasks[taskInfo.indexOfTodoTask].is_done = true;\r\n    }\r\n\r\n    function randMod(uint256 _modulus) internal returns (uint256) {\r\n        // increase nonce\r\n        randNonce++;\r\n        return\r\n            uint256(\r\n                keccak256(\r\n                    abi.encodePacked(block.timestamp, msg.sender, randNonce)\r\n                )\r\n            ) % _modulus;\r\n    }\r\n}\r\n",
  "sourcePath": "D:/PersonalProjects/todo-list-dapp/ethereum/contracts/TodoTask.sol",
  "compiler": {
    "name": "solc",
    "version": "0.8.2+commit.661d1103.Emscripten.clang"
  },
  "schemaVersion": "3.3.4",
  "updatedAt": "2021-03-16T19:00:22.077Z",
  "networkType": "ethereum",
  "devdoc": {
    "kind": "dev",
    "methods": {},
    "version": 1
  },
  "userdoc": {
    "kind": "user",
    "methods": {},
    "version": 1
  }
}