{
  "contractName": "TodoList",
  "abi": [
    {
      "anonymous": false,
      "inputs": [
        {
          "indexed": false,
          "internalType": "uint256",
          "name": "todo_id",
          "type": "uint256"
        },
        {
          "indexed": false,
          "internalType": "string",
          "name": "name",
          "type": "string"
        },
        {
          "indexed": false,
          "internalType": "bool",
          "name": "is_done",
          "type": "bool"
        }
      ],
      "name": "NewTask",
      "type": "event"
    },
    {
      "inputs": [
        {
          "internalType": "uint256",
          "name": "",
          "type": "uint256"
        }
      ],
      "name": "ownerOfTask",
      "outputs": [
        {
          "internalType": "address",
          "name": "",
          "type": "address"
        }
      ],
      "stateMutability": "view",
      "type": "function"
    },
    {
      "inputs": [
        {
          "internalType": "address",
          "name": "",
          "type": "address"
        }
      ],
      "name": "tasksCount",
      "outputs": [
        {
          "internalType": "uint256",
          "name": "",
          "type": "uint256"
        }
      ],
      "stateMutability": "view",
      "type": "function"
    },
    {
      "inputs": [
        {
          "internalType": "string",
          "name": "_name",
          "type": "string"
        }
      ],
      "name": "addTask",
      "outputs": [],
      "stateMutability": "nonpayable",
      "type": "function"
    }
  ],
  "bytecode": "0x60806040526000805534801561001457600080fd5b50610944806100246000396000f3fe608060405234801561001057600080fd5b50600436106100415760003560e01c80636723856214610046578063679507dc146100625780637b219c3914610092575b600080fd5b610060600480360381019061005b9190610450565b6100c2565b005b61007c60048036038101906100779190610491565b61024c565b604051610089919061058b565b60405180910390f35b6100ac60048036038101906100a79190610427565b61027f565b6040516100b991906105a6565b60405180910390f35b600060405180606001604052806100d96064610297565b8152602001838152602001600015158152509050600181908060018154018082558091505060019003906000526020600020906003020160009091909190915060008201518160000155602082015181600101908051906020019061013f9291906102f2565b5060408201518160020160006101000a81548160ff021916908315150217905550505033600260008360000151815260200190815260200160002060006101000a81548173ffffffffffffffffffffffffffffffffffffffff021916908373ffffffffffffffffffffffffffffffffffffffff160217905550600180549050600360003373ffffffffffffffffffffffffffffffffffffffff1673ffffffffffffffffffffffffffffffffffffffff168152602001908152602001600020819055507f8de7fcf423c3be88a1d33619458254be5a02866653e3209631248661ba7db881816000015182602001518360400151604051610240939291906105c1565b60405180910390a15050565b60026020528060005260406000206000915054906101000a900473ffffffffffffffffffffffffffffffffffffffff1681565b60036020528060005260406000206000915090505481565b60008060008154809291906102ab9061075e565b91905055508142336000546040516020016102c89392919061054e565b6040516020818303038152906040528051906020012060001c6102eb91906107d5565b9050919050565b8280546102fe906106fb565b90600052602060002090601f0160209004810192826103205760008555610367565b82601f1061033957805160ff1916838001178555610367565b82800160010185558215610367579182015b8281111561036657825182559160200191906001019061034b565b5b5090506103749190610378565b5090565b5b80821115610391576000816000905550600101610379565b5090565b60006103a86103a384610624565b6105ff565b9050828152602081018484840111156103c057600080fd5b6103cb8482856106b9565b509392505050565b6000813590506103e2816108e0565b92915050565b600082601f8301126103f957600080fd5b8135610409848260208601610395565b91505092915050565b600081359050610421816108f7565b92915050565b60006020828403121561043957600080fd5b6000610447848285016103d3565b91505092915050565b60006020828403121561046257600080fd5b600082013567ffffffffffffffff81111561047c57600080fd5b610488848285016103e8565b91505092915050565b6000602082840312156104a357600080fd5b60006104b184828501610412565b91505092915050565b6104c381610671565b82525050565b6104da6104d582610671565b6107a7565b82525050565b6104e981610683565b82525050565b60006104fa82610655565b6105048185610660565b93506105148185602086016106c8565b61051d816108c2565b840191505092915050565b610531816106af565b82525050565b610548610543826106af565b6107cb565b82525050565b600061055a8286610537565b60208201915061056a82856104c9565b60148201915061057a8284610537565b602082019150819050949350505050565b60006020820190506105a060008301846104ba565b92915050565b60006020820190506105bb6000830184610528565b92915050565b60006060820190506105d66000830186610528565b81810360208301526105e881856104ef565b90506105f760408301846104e0565b949350505050565b600061060961061a565b9050610615828261072d565b919050565b6000604051905090565b600067ffffffffffffffff82111561063f5761063e610893565b5b610648826108c2565b9050602081019050919050565b600081519050919050565b600082825260208201905092915050565b600061067c8261068f565b9050919050565b60008115159050919050565b600073ffffffffffffffffffffffffffffffffffffffff82169050919050565b6000819050919050565b82818337600083830152505050565b60005b838110156106e65780820151818401526020810190506106cb565b838111156106f5576000848401525b50505050565b6000600282049050600182168061071357607f821691505b6020821081141561072757610726610864565b5b50919050565b610736826108c2565b810181811067ffffffffffffffff8211171561075557610754610893565b5b80604052505050565b6000610769826106af565b91507fffffffffffffffffffffffffffffffffffffffffffffffffffffffffffffffff82141561079c5761079b610806565b5b600182019050919050565b60006107b2826107b9565b9050919050565b60006107c4826108d3565b9050919050565b6000819050919050565b60006107e0826106af565b91506107eb836106af565b9250826107fb576107fa610835565b5b828206905092915050565b7f4e487b7100000000000000000000000000000000000000000000000000000000600052601160045260246000fd5b7f4e487b7100000000000000000000000000000000000000000000000000000000600052601260045260246000fd5b7f4e487b7100000000000000000000000000000000000000000000000000000000600052602260045260246000fd5b7f4e487b7100000000000000000000000000000000000000000000000000000000600052604160045260246000fd5b6000601f19601f8301169050919050565b60008160601b9050919050565b6108e981610671565b81146108f457600080fd5b50565b610900816106af565b811461090b57600080fd5b5056fea2646970667358221220041818f7d317688928f6bad29ff9e84ebf7ecf8b451232ee293a6a256dcf396c64736f6c63430008020033",
  "immutableReferences": {},
  "source": "pragma solidity ^0.8.2;\r\n\r\ncontract TodoList {\r\n    event NewTask(uint256 todo_id, string name, bool is_done);\r\n\r\n    uint256 randNonce = 0;\r\n\r\n    struct TodoTask {\r\n        uint256 todo_id;\r\n        string name;\r\n        bool is_done;\r\n    }\r\n\r\n    TodoTask[] tasks;\r\n\r\n    mapping(uint256 => address) public ownerOfTask;\r\n    mapping(address => uint256) public tasksCount;\r\n\r\n    function addTask(string memory _name) external {\r\n        TodoTask memory newTask = TodoTask(randMod(100), _name, false);\r\n        tasks.push(newTask);\r\n        ownerOfTask[newTask.todo_id] = msg.sender;\r\n        tasksCount[msg.sender] = tasks.length;\r\n        emit NewTask(newTask.todo_id, newTask.name, newTask.is_done);\r\n    }\r\n\r\n    function randMod(uint256 _modulus) internal returns (uint256) {\r\n        // increase nonce\r\n        randNonce++;\r\n        return\r\n            uint256(\r\n                keccak256(\r\n                    abi.encodePacked(block.timestamp, msg.sender, randNonce)\r\n                )\r\n            ) % _modulus;\r\n    }\r\n}\r\n",
  "sourcePath": "D:/PersonalProjects/todo-list-dapp/ethereum/contracts/TodoTask.sol",
  "compiler": {
    "name": "solc",
    "version": "0.8.2+commit.661d1103.Emscripten.clang"
  },
  "schemaVersion": "3.3.4",
  "updatedAt": "2021-03-13T19:14:56.052Z",
  "devdoc": {
    "kind": "dev",
    "methods": {},
    "version": 1
  },
  "userdoc": {
    "kind": "user",
    "methods": {},
    "version": 1
  }
}