{
  "contractName": "TodoList",
  "abi": [
    {
      "anonymous": false,
      "inputs": [
        {
          "indexed": false,
          "internalType": "uint256",
          "name": "todo_id",
          "type": "uint256"
        },
        {
          "indexed": false,
          "internalType": "string",
          "name": "name",
          "type": "string"
        },
        {
          "indexed": false,
          "internalType": "bool",
          "name": "is_done",
          "type": "bool"
        }
      ],
      "name": "NewTask",
      "type": "event"
    },
    {
      "inputs": [
        {
          "internalType": "uint256",
          "name": "",
          "type": "uint256"
        }
      ],
      "name": "ownerOfTask",
      "outputs": [
        {
          "internalType": "address",
          "name": "",
          "type": "address"
        }
      ],
      "stateMutability": "view",
      "type": "function"
    },
    {
      "inputs": [
        {
          "internalType": "address",
          "name": "",
          "type": "address"
        }
      ],
      "name": "tasksCount",
      "outputs": [
        {
          "internalType": "uint256",
          "name": "",
          "type": "uint256"
        }
      ],
      "stateMutability": "view",
      "type": "function"
    },
    {
      "inputs": [
        {
          "internalType": "string",
          "name": "_name",
          "type": "string"
        }
      ],
      "name": "addTask",
      "outputs": [],
      "stateMutability": "nonpayable",
      "type": "function"
    },
    {
      "inputs": [],
      "name": "getTasks",
      "outputs": [
        {
          "components": [
            {
              "internalType": "uint256",
              "name": "todo_id",
              "type": "uint256"
            },
            {
              "internalType": "string",
              "name": "name",
              "type": "string"
            },
            {
              "internalType": "bool",
              "name": "is_done",
              "type": "bool"
            }
          ],
          "internalType": "struct TodoList.TodoTask[]",
          "name": "",
          "type": "tuple[]"
        }
      ],
      "stateMutability": "view",
      "type": "function"
    }
  ],
  "bytecode": "0x60806040526000805534801561001457600080fd5b50610e73806100246000396000f3fe608060405234801561001057600080fd5b506004361061004c5760003560e01c806304a87e3814610051578063672385621461006f578063679507dc1461008b5780637b219c39146100bb575b600080fd5b6100596100eb565b6040516100669190610a69565b60405180910390f35b610089600480360381019061008491906107e3565b610432565b005b6100a560048036038101906100a09190610824565b6105bc565b6040516100b29190610a4e565b60405180910390f35b6100d560048036038101906100d091906107ba565b6105ef565b6040516100e29190610a8b565b60405180910390f35b60606000600360003373ffffffffffffffffffffffffffffffffffffffff1673ffffffffffffffffffffffffffffffffffffffff1681526020019081526020016000205467ffffffffffffffff81111561016e577f4e487b7100000000000000000000000000000000000000000000000000000000600052604160045260246000fd5b6040519080825280602002602001820160405280156101a757816020015b610194610662565b81526020019060019003908161018c5790505b5090506000805b600180549050811015610429573373ffffffffffffffffffffffffffffffffffffffff166002600060018481548110610210577f4e487b7100000000000000000000000000000000000000000000000000000000600052603260045260246000fd5b906000526020600020906003020160000154815260200190815260200160002060009054906101000a900473ffffffffffffffffffffffffffffffffffffffff1673ffffffffffffffffffffffffffffffffffffffff1614156103ca57600181815481106102a7577f4e487b7100000000000000000000000000000000000000000000000000000000600052603260045260246000fd5b9060005260206000209060030201604051806060016040529081600082015481526020016001820180546102da90610c2a565b80601f016020809104026020016040519081016040528092919081815260200182805461030690610c2a565b80156103535780601f1061032857610100808354040283529160200191610353565b820191906000526020600020905b81548152906001019060200180831161033657829003601f168201915b505050505081526020016002820160009054906101000a900460ff1615151515815250508383815181106103b0577f4e487b7100000000000000000000000000000000000000000000000000000000600052603260045260246000fd5b602002602001018190525081806103c690610c8d565b9250505b81600360003373ffffffffffffffffffffffffffffffffffffffff1673ffffffffffffffffffffffffffffffffffffffff16815260200190815260200160002054141561041657610429565b808061042190610c8d565b9150506101ae565b50819250505090565b600060405180606001604052806104496064610607565b815260200183815260200160001515815250905060018190806001815401808255809150506001900390600052602060002090600302016000909190919091506000820151816000015560208201518160010190805190602001906104af929190610685565b5060408201518160020160006101000a81548160ff021916908315150217905550505033600260008360000151815260200190815260200160002060006101000a81548173ffffffffffffffffffffffffffffffffffffffff021916908373ffffffffffffffffffffffffffffffffffffffff160217905550600180549050600360003373ffffffffffffffffffffffffffffffffffffffff1673ffffffffffffffffffffffffffffffffffffffff168152602001908152602001600020819055507f8de7fcf423c3be88a1d33619458254be5a02866653e3209631248661ba7db8818160000151826020015183604001516040516105b093929190610aa6565b60405180910390a15050565b60026020528060005260406000206000915054906101000a900473ffffffffffffffffffffffffffffffffffffffff1681565b60036020528060005260406000206000915090505481565b600080600081548092919061061b90610c8d565b919050555081423360005460405160200161063893929190610a11565b6040516020818303038152906040528051906020012060001c61065b9190610d04565b9050919050565b604051806060016040528060008152602001606081526020016000151581525090565b82805461069190610c2a565b90600052602060002090601f0160209004810192826106b357600085556106fa565b82601f106106cc57805160ff19168380011785556106fa565b828001600101855582156106fa579182015b828111156106f95782518255916020019190600101906106de565b5b509050610707919061070b565b5090565b5b8082111561072457600081600090555060010161070c565b5090565b600061073b61073684610b09565b610ae4565b90508281526020810184848401111561075357600080fd5b61075e848285610be8565b509392505050565b60008135905061077581610e0f565b92915050565b600082601f83011261078c57600080fd5b813561079c848260208601610728565b91505092915050565b6000813590506107b481610e26565b92915050565b6000602082840312156107cc57600080fd5b60006107da84828501610766565b91505092915050565b6000602082840312156107f557600080fd5b600082013567ffffffffffffffff81111561080f57600080fd5b61081b8482850161077b565b91505092915050565b60006020828403121561083657600080fd5b6000610844848285016107a5565b91505092915050565b6000610859838361098c565b905092915050565b61086a81610ba0565b82525050565b61088161087c82610ba0565b610cd6565b82525050565b600061089282610b4a565b61089c8185610b6d565b9350836020820285016108ae85610b3a565b8060005b858110156108ea57848403895281516108cb858261084d565b94506108d683610b60565b925060208a019950506001810190506108b2565b50829750879550505050505092915050565b61090581610bb2565b82525050565b61091481610bb2565b82525050565b600061092582610b55565b61092f8185610b7e565b935061093f818560208601610bf7565b61094881610df1565b840191505092915050565b600061095e82610b55565b6109688185610b8f565b9350610978818560208601610bf7565b61098181610df1565b840191505092915050565b60006060830160008301516109a460008601826109dc565b50602083015184820360208601526109bc828261091a565b91505060408301516109d160408601826108fc565b508091505092915050565b6109e581610bde565b82525050565b6109f481610bde565b82525050565b610a0b610a0682610bde565b610cfa565b82525050565b6000610a1d82866109fa565b602082019150610a2d8285610870565b601482019150610a3d82846109fa565b602082019150819050949350505050565b6000602082019050610a636000830184610861565b92915050565b60006020820190508181036000830152610a838184610887565b905092915050565b6000602082019050610aa060008301846109eb565b92915050565b6000606082019050610abb60008301866109eb565b8181036020830152610acd8185610953565b9050610adc604083018461090b565b949350505050565b6000610aee610aff565b9050610afa8282610c5c565b919050565b6000604051905090565b600067ffffffffffffffff821115610b2457610b23610dc2565b5b610b2d82610df1565b9050602081019050919050565b6000819050602082019050919050565b600081519050919050565b600081519050919050565b6000602082019050919050565b600082825260208201905092915050565b600082825260208201905092915050565b600082825260208201905092915050565b6000610bab82610bbe565b9050919050565b60008115159050919050565b600073ffffffffffffffffffffffffffffffffffffffff82169050919050565b6000819050919050565b82818337600083830152505050565b60005b83811015610c15578082015181840152602081019050610bfa565b83811115610c24576000848401525b50505050565b60006002820490506001821680610c4257607f821691505b60208210811415610c5657610c55610d93565b5b50919050565b610c6582610df1565b810181811067ffffffffffffffff82111715610c8457610c83610dc2565b5b80604052505050565b6000610c9882610bde565b91507fffffffffffffffffffffffffffffffffffffffffffffffffffffffffffffffff821415610ccb57610cca610d35565b5b600182019050919050565b6000610ce182610ce8565b9050919050565b6000610cf382610e02565b9050919050565b6000819050919050565b6000610d0f82610bde565b9150610d1a83610bde565b925082610d2a57610d29610d64565b5b828206905092915050565b7f4e487b7100000000000000000000000000000000000000000000000000000000600052601160045260246000fd5b7f4e487b7100000000000000000000000000000000000000000000000000000000600052601260045260246000fd5b7f4e487b7100000000000000000000000000000000000000000000000000000000600052602260045260246000fd5b7f4e487b7100000000000000000000000000000000000000000000000000000000600052604160045260246000fd5b6000601f19601f8301169050919050565b60008160601b9050919050565b610e1881610ba0565b8114610e2357600080fd5b50565b610e2f81610bde565b8114610e3a57600080fd5b5056fea2646970667358221220567378e775b5482d9ef1c693d4670f780c77ab34bd5fd1d099b226c3e8dcbd3264736f6c63430008020033",
  "immutableReferences": {},
  "source": "pragma solidity ^0.8.2;\r\n\r\ncontract TodoList {\r\n    event NewTask(uint256 todo_id, string name, bool is_done);\r\n\r\n    uint256 randNonce = 0;\r\n\r\n    struct TodoTask {\r\n        uint256 todo_id;\r\n        string name;\r\n        bool is_done;\r\n    }\r\n\r\n    TodoTask[] tasks;\r\n\r\n    mapping(uint256 => address) public ownerOfTask;\r\n    mapping(address => uint256) public tasksCount;\r\n\r\n    modifier onlyOwnerOf(uint256 _todoId) {\r\n        require(msg.sender == ownerOfTask[_todoId]);\r\n        _;\r\n    }\r\n\r\n    function addTask(string memory _name) external {\r\n        TodoTask memory newTask = TodoTask(randMod(100), _name, false);\r\n        tasks.push(newTask);\r\n        ownerOfTask[newTask.todo_id] = msg.sender;\r\n        tasksCount[msg.sender] = tasks.length;\r\n        emit NewTask(newTask.todo_id, newTask.name, newTask.is_done);\r\n    }\r\n\r\n    function getTasks() external view returns (TodoTask[] memory) {\r\n        TodoTask[] memory result = new TodoTask[](tasksCount[msg.sender]);\r\n        uint256 counter = 0;\r\n        for (uint256 i = 0; i < tasks.length; i++) {\r\n            if (ownerOfTask[tasks[i].todo_id] == msg.sender) {\r\n                result[counter] = tasks[i];\r\n                counter++;\r\n            }\r\n            if (tasksCount[msg.sender] == counter) {\r\n                break;\r\n            }\r\n        }\r\n        return result;\r\n    }\r\n\r\n    function randMod(uint256 _modulus) internal returns (uint256) {\r\n        // increase nonce\r\n        randNonce++;\r\n        return\r\n            uint256(\r\n                keccak256(\r\n                    abi.encodePacked(block.timestamp, msg.sender, randNonce)\r\n                )\r\n            ) % _modulus;\r\n    }\r\n}\r\n",
  "sourcePath": "D:/PersonalProjects/todo-list-dapp/ethereum/contracts/TodoTask.sol",
  "compiler": {
    "name": "solc",
    "version": "0.8.2+commit.661d1103.Emscripten.clang"
  },
  "schemaVersion": "3.3.4",
  "updatedAt": "2021-03-15T17:01:42.494Z",
  "devdoc": {
    "kind": "dev",
    "methods": {},
    "version": 1
  },
  "userdoc": {
    "kind": "user",
    "methods": {},
    "version": 1
  }
}